:020000040800F2
:1000000000500020212900082D2400082F2400087A
:1000100031240008332400083524000800000000C3
:10002000000000000000000000000000372400086D
:1000300039240008000000003B2400083D2400088B
:100040006929000869290008692900086929000848
:100050006929000869290008692900086929000838
:1000600069290008452400084F2400086929000870
:100070006929000869290008692900086929000818
:100080005924000869240008692900086929000822
:1000900069290008692900086929000879240008ED
:1000A00069290008692900086929000869290008E8
:1000B00085240008692900086929000869290008C1
:1000C00069290008692900086929000869290008C8
:1000D0006929000869290008952400086929000891
:1000E000A52400086929000869290008000000000B
:1000F0000000000000000000000000000000000000
:0C01000000000000000000005FF808F1A3
:1001100081F0004102E000BF83F0004330B54FEAB8
:1001200041044FEA430594EA050F08BF90EA020F25
:100130001FBF54EA000C55EA020C7FEA645C7FEAB8
:10014000655C00F0E2804FEA5454D4EB5555B8BFDB
:100150006D420CDD2C4480EA020281EA030382EA4C
:10016000000083EA010180EA020281EA0303362DDE
:1001700088BF30BD11F0004F4FEA01314FF4801CB1
:100180004CEA113102D0404261EB410113F0004FC3
:100190004FEA03334CEA133302D0524263EB43037A
:1001A00094EA050F00F0A780A4F10104D5F1200E18
:1001B0000DDB02FA0EFC22FA05F2801841F1000173
:1001C00003FA0EF2801843FA05F359410EE0A5F147
:1001D00020050EF1200E012A03FA0EFC28BF4CF078
:1001E000020C43FA05F3C01851EBE37101F000452E
:1001F00007D54FF0000EDCF1000C7EEB00006EEB3B
:100200000101B1F5801F1BD3B1F5001F0CD34908C4
:100210005FEA30004FEA3C0C04F101044FEA44521B
:1002200012F5800F80F09A80BCF1004F08BF5FEAA2
:10023000500C50F1000041EB045141EA050130BD82
:100240005FEA4C0C404141EB0101013C28BFB1F594
:10025000801FE9D291F0000F04BF01460020B1FADF
:1002600081F308BF2033A3F10B03B3F120020CDAB2
:100270000C3208DD02F1140CC2F10C0201FA0CF090
:1002800021FA02F10CE002F11402D8BFC2F1200CF5
:1002900001FA02F120FA0CFCDCBF41EA0C019040AB
:1002A000E41AA2BF01EB0451294330BD6FEA0404F4
:1002B0001F3C1CDA0C340EDC04F11404C4F12002DF
:1002C00020FA04F001FA02F340EA030021FA04F3F1
:1002D00045EA030130BDC4F10C04C4F1200220FA48
:1002E00002F001FA04F340EA0300294630BD21FA86
:1002F00004F0294630BD94F0000F83F4801306BF4C
:1003000081F480110134013D4EE77FEA645C18BF3F
:100310007FEA655C29D094EA050F08BF90EA020FD6
:1003200005D054EA000C04BF1946104630BD91EACE
:10033000030F1EBF0021002030BD5FEA545C05D1D1
:100340004000494128BF41F0004130BD14F5800410
:100350003CBF01F5801130BD01F0004545F0FE4184
:1003600041F470014FF0000030BD7FEA645C1ABFB9
:10037000194610467FEA655C1CBF0B46024650EAF0
:10038000013406BF52EA033591EA030F41F400211C
:1003900030BD00BF90F0000F04BF0021704730B5A2
:1003A0004FF4806404F132044FF000054FF0000177
:1003B00050E700BF90F0000F04BF0021704730B538
:1003C0004FF4806404F1320410F0004548BF40420D
:1003D0004FF000013EE700BF42004FEAE2014FEA62
:1003E00031014FEA02701FBF12F07F4393F07F4F3D
:1003F00081F06051704732F07F4208BF704793F040
:100400007F4F04BF41F40021704730B54FF4607452
:1004100001F0004521F000411CE700BF50EA010255
:1004200008BF704730B54FF000050AE050EA0102FE
:1004300008BF704730B511F0004502D5404261EB6E
:1004400041014FF4806404F132045FEA915C3FF4AF
:10045000D8AE4FF003025FEADC0C18BF03325FEA4C
:10046000DC0C18BF033202EBDC02C2F1200300FAFD
:1004700003FC20FA02F001FA03FE40EA0E0021FA22
:1004800002F11444BDE600BF70B54FF0FF0C4CF410
:10049000E06C1CEA11541DBF1CEA135594EA0C0FC2
:1004A00095EA0C0F00F0DEF82C4481EA030621EAFD
:1004B0004C5123EA4C5350EA013518BF52EA033538
:1004C00041F4801143F4801338D0A0FB02CE4FF0EA
:1004D0000005E1FB02E506F00042E0FB03E54FF01A
:1004E0000006E1FB03569CF0000F18BF4EF0010E12
:1004F000A4F1FF04B6F5007F64F5407404D25FEA0E
:100500004E0E6D4146EB060642EAC62141EA5551C0
:100510004FEAC52040EA5E504FEACE2EB4F1FD0C02
:1005200088BFBCF5E06F1ED8BEF1004F08BF5FEA80
:10053000500E50F1000041EB045170BD06F0004632
:1005400046EA010140EA020081EA0301B4EB5C04DF
:10055000C2BFD4EB0C0541EA045170BD41F48011D7
:100560004FF0000E013C00F3AB8014F1360FDEBFFC
:10057000002001F0004170BDC4F10004203C35DAD8
:100580000C341BDC04F11404C4F1200500FA05F35B
:1005900020FA04F001FA05F240EA020001F00042FC
:1005A00021F0004110EBD37021FA04F642EB060172
:1005B0005EEA430E08BF20EAD37070BDC4F10C049C
:1005C000C4F1200500FA04F320FA05F001FA04F260
:1005D00040EA020001F0004110EBD37041F100014C
:1005E0005EEA430E08BF20EAD37070BDC4F1200557
:1005F00000FA05F24EEA020E20FA04F301FA05F2BF
:1006000043EA020321FA04F001F0004121FA04F266
:1006100020EA020000EBD3705EEA430E08BF20EA36
:10062000D37070BD94F0000F0FD101F00046400070
:1006300041EB010111F4801F08BF013CF7D041EAF2
:10064000060195F0000F18BF704703F000465200F6
:1006500043EB030313F4801F08BF013DF7D043EAC7
:100660000603704794EA0C0F0CEA135518BF95EA7D
:100670000C0F0CD050EA410618BF52EA4306D1D104
:1006800081EA030101F000414FF0000070BD50EA23
:10069000410606BF1046194652EA430619D094EAAD
:1006A0000C0F02D150EA013613D195EA0C0F05D197
:1006B00052EA03361CBF104619460AD181EA0301EB
:1006C00001F0004141F0FE4141F470014FF00000A3
:1006D00070BD41F0FE4141F4780170BD70B54FF03E
:1006E000FF0C4CF4E06C1CEA11541DBF1CEA1355BE
:1006F00094EA0C0F95EA0C0F00F0A7F8A4EB0504A0
:1007000081EA030E52EA03354FEA013100F0888096
:100710004FEA03334FF0805545EA131343EA12635F
:100720004FEA022245EA111545EA10654FEA002614
:100730000EF000419D4208BF964244F1FD0404F5CD
:10074000407402D25B084FEA3202B61A65EB030529
:100750005B084FEA32024FF480104FF4002CB6EBE6
:10076000020E75EB030E22BFB61A754640EA0C0066
:100770005B084FEA3202B6EB020E75EB030E22BFA6
:10078000B61A754640EA5C005B084FEA3202B6EBE7
:10079000020E75EB030E22BFB61A754640EA9C00A6
:1007A0005B084FEA3202B6EB020E75EB030E22BF76
:1007B000B61A754640EADC0055EA060E18D04FEA34
:1007C000051545EA16754FEA06164FEAC30343EAD4
:1007D00052734FEAC2025FEA1C1CC0D111F4801FA1
:1007E0000BD141EA00014FF000004FF0004CB6E79A
:1007F00011F4801F04BF01430020B4F1FD0C88BF39
:10080000BCF5E06F3FF6AFAEB5EB030C04BFB6EB43
:10081000020C5FEA500C50F1000041EB045170BD36
:100820000EF0004E4EEA113114EB5C04C2BFD4EB63
:100830000C0541EA045170BD41F480114FF0000EE7
:10084000013C90E645EA060E8DE60CEA135594EA63
:100850000C0F08BF95EA0C0F3FF43BAF94EA0C0F66
:100860000AD150EA01347FF434AF95EA0C0F7FF4DB
:1008700025AF104619462CE795EA0C0F06D152EA2F
:1008800003353FF4FDAE1046194622E750EA410613
:1008900018BF52EA43067FF4C5AE50EA41047FF424
:1008A0000DAF52EA43057FF4EBAE12E74FEA410287
:1008B00012F5001215D211D56FF47873B3EB6252B2
:1008C00012D94FEAC12343F0004343EA505311F0D9
:1008D000004F23FA02F018BF404270474FF000006B
:1008E000704750EA013005D111F0004008BF6FF0A9
:1008F000004070474FF00000704700BF80F000409C
:1009000002E000BF81F0004142001FBF5FEA4103E7
:1009100092EA030F7FEA226C7FEA236C6AD04FEAE7
:100920001262D2EB1363C1BFD2184140484041402C
:10093000B8BF5B42192B88BF704710F0004F40F4DE
:10094000000020F07F4018BF404211F0004F41F4FA
:10095000000121F07F4118BF494292EA030F3FD0C6
:10096000A2F1010241FA03FC10EB0C00C3F12003D9
:1009700001FA03F100F0004302D5494260EB400068
:10098000B0F5000F13D3B0F1807F06D340084FEAD3
:10099000310102F10102FE2A51D2B1F1004F40EBC8
:1009A000C25008BF20F0010040EA03007047490030
:1009B00040EB0000013A28BFB0F5000FEDD2B0FACD
:1009C00080FCACF1080CB2EB0C0200FA0CF0AABFF0
:1009D00000EBC25052421843BCBFD040184370478E
:1009E00092F0000F81F4000106BF80F40000013294
:1009F000013BB5E74FEA41037FEA226C18BF7FEA6B
:100A0000236C21D092EA030F04D092F0000F08BFAC
:100A10000846704790EA010F1CBF0020704712F093
:100A20007F4F04D1400028BF40F00040704712F1D2
:100A300000723CBF00F50000704700F0004343F037
:100A4000FE4040F4000070477FEA226216BF08466D
:100A50007FEA23630146420206BF5FEA412390EA30
:100A6000010F40F4800070474FF0000304E000BF26
:100A700010F0004348BF40425FEA000C08BF7047D7
:100A800043F0964301464FF000001CE050EA01029B
:100A900008BF70474FF000030AE000BF50EA0102B0
:100AA00008BF704711F0004302D5404261EB41019D
:100AB0005FEA010C02BF84460146002043F0B643C2
:100AC00008BFA3F18053A3F50003BCFA8CF2083AE7
:100AD000A3EBC25310DB01FA02FC634400FA02FCF0
:100AE000C2F12002BCF1004F20FA02F243EB0200F7
:100AF00008BF20F00100704702F1200201FA02FC59
:100B0000C2F1200250EA4C0021FA02F243EB02004B
:100B100008BF20EADC7070474FF0FF0C1CEAD0528F
:100B20001EBF1CEAD15392EA0C0F93EA0C0F6FD050
:100B30001A4480EA010C400218BF5FEA41211ED02E
:100B40004FF0006343EA501043EA5111A0FB01311A
:100B50000CF00040B1F5000F3EBF490041EAD371EF
:100B60005B0040EA010062F17F02FD2A1DD8B3F16B
:100B7000004F40EBC25008BF20F00100704790F0DA
:100B8000000F0CF0004C08BF49024CEA502040EA2C
:100B900051207F3AC2BFD2F1FF0340EAC2507047F2
:100BA00040F400004FF00003013A5DDC12F1190F30
:100BB000DCBF00F000407047C2F10002410021FAA2
:100BC00002F1C2F1200200FA02FC5FEA310040F1BA
:100BD000000053EA4C0308BF20EADC70704792F033
:100BE000000F00F0004C02BF400010F4000F013A6B
:100BF000F9D040EA0C0093F0000F01F0004C02BF66
:100C0000490011F4000F013BF9D041EA0C018FE7D4
:100C10000CEAD15392EA0C0F18BF93EA0C0F0AD0DA
:100C200030F0004C18BF31F0004CD8D180EA010000
:100C300000F00040704790F0000F17BF90F0004F99
:100C4000084691F0000F91F0004F14D092EA0C0F7B
:100C500001D142020FD193EA0C0F03D14B0218BF0E
:100C6000084608D180EA010000F0004040F0FE4054
:100C700040F40000704740F0FE4040F440007047F0
:100C80004FF0FF0C1CEAD0521EBF1CEAD15392EA6F
:100C90000C0F93EA0C0F69D0A2EB030280EA010C5F
:100CA00049024FEA402037D04FF0805343EA1111F8
:100CB00043EA10130CF000408B4238BF5B0042F156
:100CC0007D024FF4000C8B4224BF5B1A40EA0C00FB
:100CD000B3EB510F24BFA3EB510340EA5C00B3EB2D
:100CE000910F24BFA3EB910340EA9C00B3EBD10F1B
:100CF00024BFA3EBD10340EADC001B0118BF5FEA6D
:100D00001C1CE0D1FD2A3FF650AF8B4240EBC25095
:100D100008BF20F0010070470CF0004C4CEA502056
:100D20007F32C2BFD2F1FF0340EAC250704740F4A5
:100D300000004FF00003013A37E792F0000F00F097
:100D4000004C02BF400010F4000F013AF9D040EA15
:100D50000C0093F0000F01F0004C02BF490011F4A9
:100D6000000F013BF9D041EA0C0195E70CEAD153A1
:100D700092EA0C0F08D142027FF47DAF93EA0C0F88
:100D80007FF470AF084676E793EA0C0F04D14B026C
:100D90003FF44CAF08466EE730F0004C18BF31F01E
:100DA000004CCAD130F000427FF45CAF31F0004318
:100DB0007FF43CAF5FE700BF4FF0FF3C06E000BFB1
:100DC0004FF0010C02E000BF4FF0010C4DF804CDD4
:100DD0004FEA40024FEA41037FEA226C18BF7FEAE4
:100DE000236C11D001B052EA530C18BF90EA010FE6
:100DF00058BFB2EB030088BFC81738BF6FEAE17075
:100E000018BF40F0010070477FEA226C02D15FEA10
:100E1000402C05D17FEA236CE4D15FEA412CE1D07C
:100E20005DF8040B704700BF844608466146FFE743
:100E30000FB5FFF7C9FF002848BF10F1000F0FBD25
:100E40004DF808EDFFF7F4FF0CBF012000205DF81E
:100E500008FB00BF4DF808EDFFF7EAFF34BF0120A3
:100E600000205DF808FB00BF4DF808EDFFF7E0FF3C
:100E700094BF012000205DF808FB00BF4DF808ED8D
:100E8000FFF7D2FF94BF012000205DF808FB00BFF0
:100E90004DF808EDFFF7C8FF34BF012000205DF8D2
:100EA00008FB00BF4FEA4002B2F1FE4F0FD34FF0F4
:100EB0009E03B3EB12620DD94FEA002343F00043C7
:100EC00010F0004F23FA02F018BF404270474FF075
:100ED0000000704712F1610F01D1420205D110F0FC
:100EE000004008BF6FF0004070474FF000007047AF
:100EF000844641EA000313F0030349D1403A23D367
:100F00000B6803604B6843608B688360CB68C36089
:100F10000B6903614B6943618B698361CB69C36171
:100F20000B6A03624B6A43628B6A8362CB6AC36259
:100F30000B6B03634B6B43638B6B8363CB6BC36341
:100F400040304031403ADBD230320BD30B68036083
:100F50004B6843608B688360CB68C360103010318E
:100F6000103AF3D20C3205D351F8043B40F8043B5D
:100F7000043AF9D2043208D0D2071CBF11F8013B61
:100F800000F8013B01D30B8803806046704700BF27
:100F9000082A13D38B07B1D010F00303AED0C3F1EE
:100FA0000403D21ADB071CBF11F8013B00F8013B18
:100FB000A4D331F8023B20F8023B9FE7043AD9D38F
:100FC000013A11F8013B00F8013BF9D20B780370AC
:100FD0004B7843708B788370604670474FF0FF3CCE
:100FE00006E000BF4FF0010C02E000BF4FF0010C23
:100FF0004DF804CD4FEA410C7FEA6C5C4FEA430C9C
:1010000018BF7FEA6C5C1BD001B050EA410C0CBFEA
:1010100052EA430C91EA030F02BF90EA020F00204C
:10102000704710F1000F91EA030F58BF994208BFB3
:1010300090422CBFD8176FEAE37040F00100704770
:101040004FEA410C7FEA6C5C02D150EA013C07D1C7
:101050004FEA430C7FEA6C5CD6D152EA033CD3D012
:101060005DF8040B704700BF8446104662468C460C
:101070001946634600E000BF01B5FFF7B7FF00283F
:1010800048BF10F1000F01BD4DF808EDFFF7F4FF68
:101090000CBF012000205DF808FB00BF4DF808EDF3
:1010A000FFF7EAFF34BF012000205DF808FB00BF16
:1010B0004DF808EDFFF7E0FF94BF012000205DF838
:1010C00008FB00BF4DF808EDFFF7CEFF94BF0120ED
:1010D00000205DF808FB00BF4DF808EDFFF7C4FFE6
:1010E00034BF012000205DF808FB00BF4FEA410C2F
:1010F0007FEA6C5C02D150EA013C0AD14FEA430C12
:101100007FEA6C5C02D152EA033C02D14FF000004E
:1011100070474FF0010070470348044B834202D0F0
:10112000034B03B118477047EC060020EC06002083
:10113000000000000548064B1B1AD90F01EBA30164
:10114000491002D0034B03B118477047EC0600204A
:10115000EC0600200000000010B5064C237843B9CF
:10116000FFF7DAFF044B13B10448AFF3008001230B
:10117000237010BDEC060020000000002CC4000805
:1011800008B5054B1BB105490548AFF30080BDE824
:101190000840FFF7CFBF00BF00000000F0060020AE
:1011A0002CC400088160C2604361009B83610023FE
:1011B000036043604362019B8362704770B50446DD
:1011C00008461146FFF79EFB05462060A168FFF721
:1011D000A3FC064661682846FFF794FB6169FFF7A8
:1011E0009BFC01463046FFF78FFB06466062656058
:1011F000A56A2946FFF74CFE08B1656270BD05F18E
:10120000004529463046FFF725FE0028F6D06562E6
:10121000F4E7000000B585B0002301930293039327
:101220001148124A026083600122027303754FF471
:101230006021C1614360026101F02CFE68B90423A2
:101240000193012302930023039301A9064801F0AF
:101250009DFC28B905B05DF804FB00F00DFAEEE73F
:1012600000F00AFAF6E700BF08070020002401405A
:1012700000B587B00023029303930493059302689B
:10128000114B9A4202D007B05DF804FB03F56C43A2
:101290009A6942F400729A619A6902F400720092AB
:1012A000009A9A6942F004029A619B6903F0040370
:1012B0000193019B102302930323039302A9034884
:1012C00002F0F8F8DFE700BF002401400008014009
:1012D00000B583B00E4B5A6942F001025A615B6956
:1012E00003F001030193019B00221146102001F03D
:1012F0001BFF102001F028FF00221146112001F0F1
:1013000013FF112001F020FF03B05DF804FB00BFC4
:10131000001002402DE9F04188B004AD002404948F
:10132000059406940794334B9A6942F020029A611F
:101330009A6902F020020192019A9A6942F004022D
:101340009A619A6902F004020292029A9A6942F042
:1013500008029A619B6903F008030393039B264EDE
:1013600022464FF44051304602F0AEF94FF440535C
:1013700004930127059706940223079329463046D4
:1013800002F098F84FF408430493DFF87080CDF82A
:101390001480069729461A4802F08CF838230493E3
:1013A000CDF8148006972946304602F083F822468D
:1013B0002146092001F0B8FE092001F0C5FE2246B1
:1013C00021460A2001F0B0FE0A2001F0BDFE2246AF
:1013D0002146172001F0A8FE172001F0B5FE224695
:1013E0002146282001F0A0FE282001F0ADFE08B023
:1013F000BDE8F08100100240000C01400000211007
:101400000008014008B50B480B4B03600B4B4360D1
:1014100000238360C3604FF48042026143618361B3
:10142000C361036202F0F6FA00B908BD00F024F9C6
:10143000FBE700BF8C07002000540040801A060024
:1014400008B50B480B4B03600B4B436000238360D4
:10145000C3604FF48042026143618361C3610362F0
:1014600002F0D8FA00B908BD00F006F9FBE700BFAA
:101470003807002000580040801A060010B588B0D8
:10148000002304930593069307930368264A934227
:1014900004D0264A934227D008B010BD244CA3693B
:1014A00043F00803A361A36903F008030093009BC2
:1014B0004FF440730493122305930323079304A965
:1014C0001C4801F0F7FF1C4A536843F0E06343F007
:1014D00002035360E36943F40013E361E36903F437
:1014E00000130193019BD7E7114CA36943F0080354
:1014F000A361A36903F008030293029B4FF44063C6
:101500000493122305930323079304A9094801F0C8
:10151000D1FFE36943F48003E361E36903F48003EB
:101520000393039BB8E700BF0054004000580040FD
:1015300000100240000C01400000014008B5094BBA
:10154000834200D008BD08490A78084B1A600A2275
:10155000044804F065F8064B1A68136823F0040386
:101560001360EFE7280F0020E00700204808002064
:10157000E40E002008B5B0F5006F10D0B0F5004FB4
:101580001BD0082827D0102832D020280FD10020C7
:101590001B4B18601B4B186000F0E8FA07E0194B72
:1015A0001B68012B04D0164A13680133136008BD71
:1015B000A0F57D6000F0DAFAF9E7124B1B68012B09
:1015C00004D00F4A136802331360F0E74FF4FA6057
:1015D00000F0CCFAEBE70B4B1B68012B04D0084A58
:1015E000136803331360E2E7002000F0BFFADEE780
:1015F000034B1968034A116000221A60D7E700BF45
:101600004C0800204808002038B50C4690FBF1F348
:1016100001FB1300084490FBF1F301FB1300FFF7FB
:1016200027FA0B49FFF778FA05462046FFF720FA1C
:1016300001462846FFF724FB04460649FFF71EFC37
:1016400020B103492046FFF75DF90446204638BD26
:101650000000B443000034435A308001054B83FB43
:1016600000230344C017C0EBE310C0F13F00C0B239
:10167000704700BFB7600BB672B6FEE710B594B006
:101680000AAC28220021204604F082F900230593A9
:10169000069307930893099301930293039304938A
:1016A00001220A924FF480330B930E920222119280
:1016B00012934FF4E0131393204602F059FBC0B984
:1016C0000F23059302210691002307934FF48062B4
:1016D0000892099305A802F07DFD60B902230193E9
:1016E0004FF40043039301A802F050FE28B914B050
:1016F00010BDFFF7C1FFFFF7BFFFFFF7BDFF000001
:10170000F0B583B001F058F9FFF7B8FFFFF702FE1C
:10171000FFF7DEFDFFF776FE01F072F801F01AF830
:1017200000F060FF00F028FFFFF774FDFFF788FE70
:1017300000F0BCFB0A229649964803F071FF964BD5
:101740001A68136823F004031360944802F0C0FF82
:101750003C21934803F038FB0021924803F0CAFA79
:10176000914C204601F01AFC204601F0F3FA4FF0AC
:10177000FF31204601F044F900248C4B0193009482
:101780008B4B22468B498C48FFF70CFD8B4B01930A
:1017900000948B4B22468B498B48FFF703FD7DE07D
:1017A00003F6FF739CE0A3F6D50292B240F22A71D1
:1017B0008A4210D8A3F580534FF4B47202FB03F3AE
:1017C000002B05DB1B13C3F11103804A13608AE071
:1017D00003F6FF73F6E7C3F182034FF4B47202FB22
:1017E00003F3002B04DB1B130433784A13607AE005
:1017F00003F6FF73F7E700F027FB754D0024009414
:101800002B46744A2146204600F075FD00942B4675
:10181000714A0F21204600F06EFD8AE06F4C704A3D
:10182000234607CA03C31A8000200090684B224653
:101830001E2100F060FD2FE06A4F6B4B1A686B4968
:10184000384604F00DF86A4E34466A4D0FCD0FC489
:101850002B6824F8023B1B0C23705D4D0024009480
:101860002B463A461E21204600F045FD00942B46AB
:1018700032462D21204600F03EFD0DE05E4C534BDC
:101880001A685E49204603F0EBFF00200090504BA1
:1018900022461E2100F02FFD00F0E0FA584B1C6894
:1018A0002046FEF799FD0022564BFEF7EDFD36A3CC
:1018B000D3E90023FEF712FFFEF7F8FF524B186042
:1018C000524B1B885A1E92B2802A3FF66CAFC3F16E
:1018D00096034FF4B47202FB03F3002BFFF660AFE4
:1018E0001B133A4A13602046FFF7DCFA40F23241FC
:1018F000FFF78AFE3C4DFFF7D5FA2860444B1A6883
:101900004449344803F0ACFF434C22684349324811
:1019100003F0A6FF2A684249424803F0A1FF3B4B6F
:101920001A884149414803F09BFF2368082B7FF444
:1019300062AF394B1B68082BAED801A252F823F0D6
:101940001D180008391800087D1800087D180008C7
:1019500065190008991800089918000899180008D6
:10196000391A0008324E3446324D0FCD0FC42B6861
:1019700024F8023B1B0C237000200090144B3246CD
:101980001E2100F0B8FC87E70000000000C890406E
:10199000E0070020280F0020E40E0020580E002051
:1019A000100E0020C80D00200807002000007A4417
:1019B000EC5138BE2CD49ABD0C0900200000E14542
:1019C000000070C20000D8C3E0080020EC0700202F
:1019D00048C4000808080020F4070020A0080020E0
:1019E00020CE00088C080020440800202CCE0008DF
:1019F0007808002040CE00086408002054CE00087B
:101A0000C008002000807640F0070020BE080020BB
:101A10004C080020E8CD000848080020FCCD000854
:101A20000CCE00083008002018CE00081C0800204A
:101A3000500800206CCE00082A4B1B68002B4BD1AD
:101A40000024009420237D221946204600F092FBBA
:101A5000009420237D221E217B2000F08BFB00942C
:101A600020237D2222217B2000F084FB0094402350
:101A700003222146104600F07DFB009403232246FA
:101A80002146184600F076FB0094032306222146E7
:101A9000184600F06FFB144B93F90000FFF7DCFDD4
:101AA00000F11905EDB2114E22462946307800F0BA
:101AB00057FA3078421C00942B46D2B2294600F0E7
:101AC00059FB3368013333607C2B7FF7E5AE03228B
:101AD000326000F0B9F9DFE6013B024A136000F022
:101AE000B3F9ADE700000020440800200400002006
:101AF000F8B5164C204601F02DF90C21204600F0D7
:101B00007FFF012440F6FF7600273D4601E00134C7
:101B1000E4B2052C0ED80D4801F034F80C4B23F834
:101B2000140080B20544B84200DD0746B042EEDA48
:101B30000646ECE7E81B801BFEF73CFC0022054B49
:101B4000FEF7CCFDFEF7B2FE80B2F8BD080700201C
:101B5000B408002000000840034B1B68586A0022AC
:101B60005A6200B2704700BF100E002038B5041E44
:101B700017DB134D00224FF48051284601F0A4FDDD
:101B800001224FF40051284601F09EFD84EAE470E2
:101B9000A0EBE4700B4B1B680B4A126810445863AF
:101BA00038BD074D01224FF48051284601F08CFDCD
:101BB00000224FF40051284601F086FDE6E700BF01
:101BC000000C0140C80D002008000020804B83421B
:101BD00000D0704770B5FFF78BFF7E4B1880FFF782
:101BE000BBFF7D4B18607D4CFEF742FF2168FEF77E
:101BF0008BFE20607A4B1B68042B0AD0082B08D080
:101C0000774B1B68052B28D0754B1B68072B76D0AC
:101C100070BD744B1C68C4F512640E346D4B18888B
:101C2000FEF722FF05462046FEF722FF01466E4ED4
:101C30002A463046FFF7C2FA674B18684042FEF763
:101C400017FF0246694C716A2046FFF7B7FA606ACF
:101C5000FFF728F9FFF78AFFD2E7654B1B68973338
:101C6000B3F5977F42D9634B01221A60624A136829
:101C700001331360252B03DC5E4A1268002A39D039
:101C8000222B09DD5B4A126832B9462B01DD5A4B23
:101C90001A605A48FFF76AFF564B1B68002BB3D0F7
:101CA000524D574B6B614F4B1C68C4F512640E3498
:101CB000484B1888FEF7D8FE06462046FEF7D8FEA9
:101CC0000146494C32462046FFF778FA424B1868E5
:101CD0004042FEF7CDFE0246616A2846FFF76EFAE3
:101CE000686AFFF7DFF8FFF741FF8DE7414B0022FD
:101CF0001A60BBE740F62F50FFF738FFCCE7414AA8
:101D0000136801331360B3F5FA7F02DB3E4B012207
:101D10001A603D4B1B68002B36D03C4A13680133D8
:101D20001360142B03DD3A4A1368013313602D4B03
:101D30001C68C4F512640E34264B1888FEF794FE16
:101D400005462046FEF794FE0146274C2A462046CB
:101D5000FFF734FA656A204B18684042FEF788FEA8
:101D600004462B4B1868FEF783FE2946FEF7CCFD90
:101D700001461E4D22462846FFF720FA686AFFF703
:101D800091F8FFF7F3FE43E7164B1C68C4F51264A5
:101D90000E34104B1888FEF767FE05462046FEF706
:101DA00067FE0146104E2A463046FFF707FA0A4BF7
:101DB00018684042FEF75CFE02460C4C716A2046F1
:101DC000FFF7FCF9606AFFF76DF8FFF7CFFE1FE73A
:101DD000580E0020BE080020C8080020C0080020BF
:101DE00048080020F00700200C090020E00800202F
:101DF000EC070020CC080020D808002054F2FFFF98
:101E00000000C8C2D4080020D0080020DC08002050
:101E1000C408002000B583B002460B464FF0FF31E6
:101E200000917821024801F0D3FE03B05DF804FB75
:101E30008C07002008B5034B587002211846FFF7A5
:101E4000E9FF08BDC009002008B54FF480620021F9
:101E5000014803F09DFD08BDC409002038B5104BB2
:101E600040221A70002418E0A4F15000C0B2FFF71D
:101E7000E1FF0020FFF7DEFF1020FFF7DBFF094D39
:101E80008022094901EBC4112846FFF731F881216E
:101E9000681EFFF7BFFF0134E4B2072CE4D938BD58
:101EA0003C0900203D090020C409002008B5AE20EF
:101EB000FFF7C0FF2020FFF7BDFF1020FFF7BAFF9C
:101EC000B020FFF7B7FFC820FFF7B4FF0020FFF7EF
:101ED000B1FF1020FFF7AEFF4020FFF7ABFF8120DE
:101EE000FFF7A8FFDF20FFF7A5FFA120FFF7A2FF64
:101EF000A620FFF79FFFA820FFF79CFF3F20FFF7DA
:101F000099FFA420FFF796FFD320FFF793FF00204F
:101F1000FFF790FFD520FFF78DFFF020FFF78AFF36
:101F2000D920FFF787FF2220FFF784FFDA20FFF791
:101F300081FF1220FFF77EFFDB20FFF77BFF2020D1
:101F4000FFF778FF8D20FFF775FF1420FFF772FF72
:101F5000FFF77AFFFFF782FFAF20FFF76BFF08BDA7
:101F600010F0800F1FD13F291DD86AB9CA080E4B47
:101F700003EBC2131A5C01F007014FF0010C0CFADD
:101F800001F10A431A547047CB08074A02EBC31207
:101F900012F800C001F0070101238B40DB435BB264
:101FA0000CEA030313547047C409002030B59DF8B0
:101FB000104007282FD811F0800F2CD10CB1D2433C
:101FC000D2B29DF80C400134FF2505FA04F464B246
:101FD00052B244EA020CC3F1080E45FA0EF54CEA7F
:101FE000050C5FFA8CFC0C4D85F800C00B4B03EB25
:101FF000C010435C0CEA030C00F801C022EA0403A1
:102000006FF0FF0242FA0EF21340DBB22B704CEA83
:10201000030C00F801C030BD39090020C4090020BC
:102020002DE9F04383B0064690461C469DF8289063
:10203000CF0801F007052B44082B1EDDAA40CDF880
:102040000490072300932B46D2B201463846FFF78F
:10205000ADFFC5F1080248FA02F22C44E4B2CDF813
:102060000490093CE4B200940023D2B23146781CBB
:10207000FFF79CFF03B0BDE8F083AA402C44E4B214
:10208000CDF80490013CE4B200942B46D2B2014654
:102090003846FFF78BFFEDE72DE9F04182B00646A9
:1020A00015469846CF0801F00704A2400193072384
:1020B00000932346D2B201463846FFF777FF14B9A2
:1020C00002B0BDE8F081C4F1080345FA03F2CDF88F
:1020D0000480013CE4B200940023D2B23146781C63
:1020E000FFF764FFECE72DE9F04F85B080468946A5
:1020F00092461E469DF838309DF83CB0DF0803F04C
:10210000070202920025039312E006FB045209EB3A
:10211000C40105EB08005B461AF80220C9B2C0B240
:10212000FFF7BAFF0134E4B2BC42EED30135EDB2A1
:10213000B54201D20024F7E7039B029ABAB106FB2D
:1021400007F700241D4610E03B191AF8032025F07C
:102150000701494404EB0800CDF800B0029BC9B266
:10216000C0B2FFF75DFF0134E4B2B442ECD305B076
:10217000BDE8F08F2DE9F04F85B005460C46994635
:102180009DF83870904224D09046994234D0111A6C
:1021900009B2181B002940DD01230193002840DD0E
:1021A000012302932DB224B20029B8BF49421FFA7D
:1021B00081FA09B20028B8BF40421FFA80FB00B282
:1021C000814248DC0026CDF80CB0DDF8088083465B
:1021D0004AE099420BD92E4A11701C46894606E006
:1021E0003A4621462846FFF7BBFE0134E4B2A1453A
:1021F000F6D205B0BDE8F08F90420BD9244B187091
:102200001546804606E03A4621462846FFF7A8FED6
:102210000135EDB2A845F6D2EBE74FF0FF3301935D
:10222000BCE74FF0FF330293BCE74D442DB2454568
:10223000DFD03A46E1B2E8B2FFF792FE5E44B3B2B5
:1022400036B2BAEB460FF0DC029A144424B2039A79
:102250009B1A1EB2E9E70026CDF80CA0DDF8049029
:102260008A46E4E7444424B24C45C2D03A46E1B23F
:10227000E8B2FFF775FE5644B3B236B2BBEB460F79
:10228000F0DC019A15442DB2039A9B1A1EB2E9E7BD
:102290003809002070B582B05D68203A1C7804F1DE
:1022A000070C4FEAEC0C5B7803FB0CFC9DF8186004
:1022B000019600940CFB0252FFF715FF02B070BDAF
:1022C000037890F90020002A0DDA03F0E002C02A1A
:1022D0000BD003F0F002E02A09D003F0F803F02B52
:1022E00007D000207047012070470220704703206C
:1022F0007047042070472DE9F04F87B00390049198
:1023000093461E469DF84030059333780733DB1023
:1023100096F8019003FB09F95FFA89F909F10409BC
:102320005FFA89F94FF0000A15E03378059A0192B7
:10233000009373782A1D0499039C2046FFF7D3FE6F
:1023400073782344DBB20393C2441FFA8AFA012351
:1023500000E00023E3B10BEB0A071BF80A30002B67
:102360003ED03846FFF7ACFF8046002838D0002426
:10237000337AA342EDD9756809FB045542462946D4
:10238000384603F0D7FA0028CFD00134E4B2EFE7A3
:10239000B8F1010F11D0059B0093F3682022049936
:1023A000039C2046FFF776FFF3685B782344DBB29B
:1023B0000393D0441FFA88FACDE71BF80A20059B47
:1023C0000093F3680499039C2046FFF763FFF368CA
:1023D0005B782344DBB20393C2441FFA8AFABAE75C
:1023E00007B0BDE8F08F000082B00E4B9A6942F052
:1023F00001029A619A6902F001020092009ADA6978
:1024000042F08052DA61DB6903F080530193019B53
:10241000054A536823F0E06343F00073536002B051
:10242000704700BF0010024000000140FEE7FEE7D9
:10243000FEE7FEE7FEE770477047704708B500F01B
:10244000CDFA08BD08B5082001F044F908BD08B56B
:10245000102001F03FF908BD08B5024800F088FFE0
:1024600008BD00BFE40E002008B5024800F080FF60
:1024700008BD00BFA00E002008B5202001F02AF9F9
:1024800008BD000008B5024802F059F908BD00BFB8
:10249000580E002008B5024802F0D2FE08BD00BF69
:1024A000280F002008B54FF4006001F013F94FF435
:1024B000004001F00FF908BD0120704708B503F096
:1024C00009FB162303604FF0FF3008BD08B54FF03D
:1024D000FF31FFF7F3FFFEE770B50C461646002507
:1024E00006E0AFF30080214601F8010B01350C46F0
:1024F000B542F6DB304670BD70B50C461646002579
:1025000004E014F8010BAFF300800135B542F8DBAD
:10251000304670BD4FF0FF3070474FF400534B60B2
:1025200000207047012070470020704710B5034617
:102530000C4A0D490D48006840B10C48006803443E
:10254000521A934206D8094A136010BD0748084C36
:102550000460F2E703F0BEFA0C2303604FF0FF3093
:10256000F3E700BF0050002000040000C40D00206D
:10257000881200207047000000B587B00023029346
:102580000393049305930093019315484FF0804201
:10259000026041F61F42426083606422C2600361B0
:1025A000836102F0BDF990B94FF48053029302A900
:1025B0000B4802F011FB68B90023009301936946B0
:1025C000074802F067FC40B907B05DF804FBFFF76D
:1025D00053F8E9E7FFF750F8EEE7FFF74DF8F3E7B8
:1025E000580E002010B58CB003AC242200212046E8
:1025F00003F0CEF90023019302931148114A0260BF
:10260000436083604FF6FF72C260036183610323FE
:102610000393012305930993214602F0D9F948B9A0
:1026200000230193029301A9054802F033FC20B96D
:102630000CB010BDFFF720F8F2E7FFF71DF8F7E741
:10264000100E00200004004000B583B00368B3F111
:10265000804F05D0124A934216D003B05DF804FBB8
:1026600003F50433DA6942F00102DA61DB6903F051
:1026700001030093009B002211461C2000F054FD32
:102680001C2000F061FDE8E7064BDA6942F0040225
:10269000DA61DB6903F004030193019BDDE700BF0E
:1026A000000800400010024000B587B000230293EC
:1026B0000393049305930268104B9A4202D007B02B
:1026C0005DF804FB03F50333DA6942F00202DA61D4
:1026D000DA6902F002020092009A9A6942F004025A
:1026E0009A619B6903F004030193019BC023029349
:1026F00002A9034800F0DEFEE1E700BF000400404D
:102700000008014000B587B00023029303930493AF
:10271000059302680D4B9A4202D007B05DF804FBA6
:1027200003F502339A6942F008029A619B6903F04B
:1027300008030193019B4023029302230393059313
:1027400002A9034800F0B6FEE7E700BF000800401A
:10275000000C014000B58FB000230A930B930C933B
:102760000D930893099301930293039304930593A4
:10277000069307932048214A02604360836041F634
:102780001F42C2600361836102F0CAF820BB4FF4AC
:1027900080530A930AA9184802F01EFAF8B916489D
:1027A00002F0EAF8F0B900230893099308A9124847
:1027B00002F070FBC8B960230193002202920392D9
:1027C000059201A90C4802F08DF988B90A48FFF773
:1027D00099FF0FB05DF804FBFEF74EFFD7E7FEF759
:1027E0004BFFDCE7FEF748FFDDE7FEF745FFE2E7DA
:1027F000FEF742FFEAE700BFC80D002000080040D6
:1028000008B50A480A4B03604FF41653436000238F
:102810008360C36003610C2242618361C36102F083
:1028200029FC00B908BDFEF727FFFBE7280F0020B1
:1028300000440040F0B587B0002302930393049353
:1028400005930268304B9A4201D007B0F0BD0446B0
:1028500003F5E633DA6942F40032DA61DA6902F448
:1028600000320092009A9A6942F004029A619B69D0
:1028700003F004030193019B0423029302230393B7
:102880000323059302AF214E3946304600F012FE75
:10289000082302930025039504953946304600F03D
:1028A00009FE1B481B4B0360456085608023C360A5
:1028B000056145618561C56100F07EFCF0B9144B8E
:1028C000E3635C621448154B0360102343600023EC
:1028D00083608022C260036143618361C36100F051
:1028E0006BFC70B90C4BA3635C620022114626207E
:1028F00000F01AFC262000F027FCA6E7FEF7BCFE3D
:10290000DDE7FEF7B9FEEDE70044004000080140B6
:10291000E40E00206C000240A00E00208000024067
:10292000FFF728FE0B480C490C4A002302E0D4585C
:10293000C4500433C4188C42F9D3094A094C00230B
:1029400001E013600432A242FBD303F0C9F8FEF7A2
:10295000D7FE704700000020EC060020C0D200081F
:10296000EC06002088120020FEE7000010B50446A7
:102970000E4B1A784FF47A73B3FBF2F30C4A1068DB
:10298000B0FBF3F000F0EEFB68B90F2C01D9012089
:102990000AE0002221464FF0FF3000F0C5FB054B56
:1029A0001C60002000E0012010BD00BF10000020CE
:1029B0000C0000201400002008B5074A136843F0FB
:1029C00010031360032000F09DFB0F20FFF7CEFFE4
:1029D000FFF70AFD002008BD00200240034A1168ED
:1029E000034B1B780B441360704700BF700F00202F
:1029F00010000020014B1868704700BF700F0020C6
:102A0000F0B583B005460C4600230193FFF7F2FFB3
:102A10002B689A6812F4807F23D107465A6812F413
:102A2000807F03D1DB6A13F4700F29D0504B1E68EE
:102A3000022001F037FDB6FBF0F62B6819694D4A0C
:102A4000114236D1D96802F15C42114231D1196983
:102A5000494A114240D1DA68484B1A423ED02923F4
:102A600041E0AB6A43F02003AB62002385F82430D9
:102A7000012003B0F0BD2B681B6813F0020F0FD0CC
:102A80002B681B6813F0020F4FD1B4F1FF3FF7D052
:102A9000002CF0D0FFF7AEFFC31BA342F0D9EAE74A
:102AA000AB6A43F00403AB62002385F824300320B3
:102AB000DFE71969304A114204D1D96802F16E4248
:102AC00011420DD019692E4A0A405AB9DA682C4BC6
:102AD00013405BB1FC2306E0292304E0142302E049
:102AE000542300E0FC2303FB06F607E05423FAE737
:102AF000019BB34210D3019B01330193019BB3426D
:102B000013D2B4F1FF3FF6D0002CF1D0FFF772FFE3
:102B1000C01BA042EFD9EBE7AB6A43F00403AB6202
:102B2000002385F824300320A3E72B686FF01202FE
:102B30001A60AB6A43F40073AB622B689B6803F4C2
:102B40006023B3F5602F01D0002092E7287B60B9A5
:102B5000AB6A23F48073AB62AB6A13F4805F88D1F5
:102B6000AB6A43F00103AB6283E7002081E700BF5B
:102B70000C000020244992249224491292244900F6
:102B8000499224000368D86C7047000030B482B0CA
:102B90000022019290F82420012A00F08F80034641
:102BA000012280F824204A68062A2DD80468606B28
:102BB00002EB8202053A4FF01F0C0CFA02FC20EAED
:102BC0000C000D6805FA02F2024362630A68092AE2
:102BD00038D91C68E06802EB42021E3A4FF0070C3D
:102BE0000CFA02FC20EA0C008D6805FA02F202439E
:102BF000E2600A68103A012A34D90020002283F8E2
:102C0000242002B030BC70470C2A0DD80568286B10
:102C100002EB8202233A1F24944020EA04000C684D
:102C2000944020432863D1E70568E86A02EB8202FA
:102C3000413A1F24944020EA04000C689440204349
:102C4000E862C3E71C68206902EB42024FF0070C00
:102C50000CFA02FC20EA0C008D6805FA02F202432D
:102C60002261C6E71A681648824205D09A6A42F085
:102C700020029A620120C1E7906810F4000F1BD176
:102C8000906840F4000090600A68102A01D000208B
:102C9000B4E70C4A12680C49A1FB0212920C02EB39
:102CA00082025200019202E0019A013A0192019AD5
:102CB000002AF9D10020A1E700209FE70220A0E729
:102CC000002401400C00002083DE1B4330B583B09C
:102CD0000023019303689A6812F0010F33D1044670
:102CE0009A6842F001029A60184B1B68184AA2FBCE
:102CF00003239B0C019302E0019B013B0193019B89
:102D0000002BF9D1FFF776FE054623689B6813F088
:102D1000010F16D1FFF76EFE431B022BF5D9236876
:102D20009B6813F0010FF0D1A36A43F01003A36274
:102D3000E36A43F00103E362002384F824300120B6
:102D400002E0002000E0002003B030BD0C000020B5
:102D500083DE1B4390F82430012B68D010B5044665
:102D6000012380F82430FFF7B1FF00285BD1A36A6C
:102D700023F4407323F0010343F48073A3622368B8
:102D80002C4A934227D0A26A22F48012A2625A6887
:102D900012F4806F05D0A26A22F4405242F48052AD
:102DA000A262A26A12F4805F2BD0E26A22F00602CD
:102DB000E262002284F824206FF002021A60236885
:102DC0009A6802F46022B2F5602F1DD09A6842F42E
:102DD00080129A602AE0A2F58062526812F4702F85
:102DE000D1D0A26A42F48012A262134A526812F44D
:102DF000806FD6D0A26A22F4405242F48052A2627E
:102E0000CFE70022E262D4E70A4A934204D09A68EC
:102E100042F4A0029A6009E0A2F58062526812F4BE
:102E2000702FD3D1F3E7002384F8243010BD0220A3
:102E3000704700BF002801400024014038B50368F6
:102E40009A6812F0010F01D1002038BD04469A683B
:102E500022F001029A60FFF7CDFD054623689B68CA
:102E600013F0010F13D0FFF7C5FD431B022BF5D95B
:102E700023689B6813F0010FF0D0A36A43F010039E
:102E8000A362E36A43F00103E3620120DDE700206F
:102E9000DBE7000000287BD070B50446836A002B76
:102EA0004DD02046FFF7CAFFA36A13F0100369D183
:102EB000002867D1A26A22F4885222F0020242F06E
:102EC0000202A2626268E1690A43217B42EA41028E
:102ED000A568B5F5807F02D0012D36D01D46267D30
:102EE000012E35D02668716821F46941294371604B
:102EF0002568AE68274931401143A960A168B1F542
:102F0000807F01D0012902D12369013B1B0525687F
:102F1000E96A21F470010B43EB62236899681E4B48
:102F20000B409A4225D0A36A23F0120343F010030A
:102F3000A362E36A43F00103E362012027E0C36276
:102F400080F82430FEF794F9ABE74FF48075C6E7BC
:102F500031B9A169013945EA413141F40065C1E760
:102F6000A16A41F02001A162E16A41F00101E16240
:102F7000B8E70023E362A36A23F0030343F00103ED
:102F8000A36204E0A36A43F01003A362012070BDB2
:102F900001207047FDF7E1FFFE0E1FFF70B582B004
:102FA0000023019390F82430012B72D004460123B2
:102FB00080F82430FFF742FF2046FFF787FE0546E2
:102FC00028B1002384F82430284602B070BDA36ADB
:102FD00023F4885323F0020343F00203A3622E4B31
:102FE0001E68022001F05EFAB6FBF0F6760001964C
:102FF00002E0019B013B0193019B002BF9D1226868
:10300000936843F008039360FFF7F4FC06462368D7
:103010009A6812F0080F14D0FFF7ECFC801B0A2806
:10302000F5D923689B6813F0080FF0D0A36A23F04A
:10303000120343F01003A362002384F82430012517
:10304000C2E79A6842F004029A60FFF7D3FC064692
:1030500023689B6813F0040F14D0FFF7CBFC801B90
:103060000A28F5D923689B6813F0040FF0D0A36AEF
:1030700023F0120343F01003A362002384F82430EA
:103080000125A1E7A36A23F0030343F00103A36230
:1030900097E7022598E700BF0C000020002808DB16
:1030A0000901C9B200F1604000F5614080F80013E9
:1030B000704700F00F000901C9B2014B1954704765
:1030C00014ED00E000B500F00700C0F1070CBCF102
:1030D000040F28BF4FF0040C031D062B0FD9C31E8D
:1030E0004FF0FF3E0EFA0CF021EA000199400EFA73
:1030F00003FE22EA0E0241EA02005DF804FB00230F
:10310000EEE70000074AD36823F4E0631B041B0CBE
:10311000000200F4E060034343F0BF6343F4003374
:10312000D360704700ED00E010B50446054BD86849
:10313000C0F30220FFF7C6FF01462046FFF7AEFFAF
:1031400010BD00BF00ED00E0002807DB00F01F020B
:10315000400901239340024A42F82030704700BFE3
:1031600000E100E00138B0F1807F0BD24FF0E023A6
:103170005861054AF02182F8231000209861072247
:103180001A6170470120704700ED00E030B401245F
:10319000056CAC40C56B6C60046863604368102BC1
:1031A00005D0036899600368DA6030BC7047036833
:1031B0009A600368D960F8E750B310B4024601681A
:1031C000144B0B441448A0FB03031B099B0013641E
:1031D000124BD363022382F8213008686FF30D107D
:1031E000536894682343D468234314692343546980
:1031F000234394692343D469234303430B60002092
:103200009063012382F8213082F8200010BC7047BF
:1032100001207047F8FFFDBFCDCCCCCC00000240B0
:1032200038B5044690F82000012831D0012084F8F8
:10323000200094F82100012804D0002384F82030D5
:10324000022038BD022084F821000020A0632568F8
:10325000286820F0010028602046FFF797FFE36A06
:103260005BB12268136843F00E0313602268136891
:1032700043F0010313600020E3E72268136823F0A2
:10328000040313602268136843F00A031360EDE738
:103290000220D6E7034690F82120022A06D0042215
:1032A0008263002280F820200120704701680A68AC
:1032B00022F00E020A6001680A6822F001020A6028
:1032C000026CC06B012101FA02F2426083F8211006
:1032D000002083F82000704708B590F82130022BB9
:1032E00003D004238363012008BD0268136823F020
:1032F0000E0313600268136823F001031360036870
:10330000194A934214D0143293421FD0143293427C
:103310001ED0143293421ED0143293421ED0143267
:10332000934202D04FF0807203E04FF4801200E02D
:1033300001220E4B5A60012380F82130002380F8CF
:103340002030436B6BB198470020CDE71022F0E7A7
:103350004FF48072EDE74FF48052EAE74FF4803289
:10336000E7E70020C0E700BF08000240000002407D
:1033700038B5C36B1A6804682568016C04238B4058
:10338000134235D015F0040F32D0236813F0200F0C
:1033900003D1236823F0040323600368434A934264
:1033A00014D01432934218D01432934217D01432EE
:1033B000934217D01432934217D01432934202D062
:1033C0004FF0806203E04FF4800200E00422384BAB
:1033D0005A60C36A03B1984738BD4022F7E74FF4FB
:1033E0008062F4E74FF48042F1E74FF48022EEE789
:1033F00002238B4013423CD015F0020F39D02368D2
:1034000013F0200F06D1236823F00A032360012361
:1034100080F821300368254A934214D01432934235
:103420001CD0143293421BD0143293421BD014325E
:1034300093421BD01432934202D04FF0007203E04B
:103440004FF4001200E00222194B5A60002380F86A
:103450002030836A002BBFD09847BDE72022F3E7D6
:103460004FF40072F0E74FF40052EDE74FF40032F2
:10347000EAE708238B401342AED015F0080FABD01B
:10348000236823F00E032360026CC16B012303FA4F
:1034900002F24A60836380F82130002380F82030F4
:1034A000036B002B98D0984796E700BF08000240B6
:1034B0000000024070B582B00024A4469EE07C4D1E
:1034C000AB4214D00CD8A5F58015AB420FD005F552
:1034D0007025AB420BD0A5F58015AB421FD106E09D
:1034E000744DAB4203D005F58035AB4217D18B68E4
:1034F000A3B1012B0DD04261082410E0CC680EE08E
:10350000CC6804340BE0CC68083408E0CC680C3498
:1035100005E00261082402E0002400E00424BEF17A
:10352000FF0F37D806464FEA8C0233680F259540C7
:1035300023EA050304FA02F2134333604B6813F0E5
:10354000805F59D05C4B9A6942F001029A619B6995
:1035500003F001030193019B4FEA9C02951C574B1A
:1035600053F825600CF00305AD000F23AB4026EAAD
:103570000306534B984214D003F58063984279D0E8
:1035800003F58063984277D003F58063984206D0B4
:10359000042307E0061DACF108029200C5E70323EF
:1035A00000E00023AB4033430232444D45F8223063
:1035B0004B6813F4801F61D0424A936843EA0E03BC
:1035C00093604B6813F4001F5ED03E4AD36843EA11
:1035D0000E03D3604B6813F4003F5BD0394A536845
:1035E00043EA0E0353604B6813F4803F58D0354ACA
:1035F000136843EA0E0313600CF1010C0B6833FAF5
:103600000CF253D0012202FA0CF203EA020E32EA63
:103610000303F1D14B68122B3FF651AF122B3FF64B
:103620007EAF01A555F823F0EF340008FD34000803
:1036300007350008193500081F3500081F35000838
:103640001F3500081F3500081F3500081F3500080A
:103650001F3500081F3500081F3500081F350008FA
:103660001F3500081F3500081F3500080135000808
:103670000D350008012395E7022393E7114A93686B
:1036800023EA0E0393609CE70E4AD36823EA0E03F5
:10369000D3609FE70B4A536823EA0E035360A2E707
:1036A000084A136823EA0E031360A5E702B070BD51
:1036B0000000221000003110001002400000014004
:1036C00000080140000401400AB10161704709048B
:1036D0000161704708B5054B5B69034200D108BD25
:1036E000024B5861FDF746FFF9E700BF00040140B7
:1036F00003685A6912F4806F01D1002070476FF49B
:1037000080625A6100230363202280F83D2080F804
:103710003E30026C42F00402026480F83C3001202A
:1037200070472DE9F04106460C46174698463BE0A7
:10373000FFF760F9069BC01A404502D8B8F1000FA8
:1037400032D1012D18D033689B6924EA03039BB260
:10375000B3FA83F35B099F4226D10023336320220F
:1037600086F83D2086F83E30326C42F0200232640A
:1037700086F83C30012027E033685B6924EA0303C4
:103780009BB2B3FA83F35B09E5E733685B6924EA2C
:10379000030C1FFA8CFCBCFA8CFC4FEA5C1C6745DE
:1037A00011D1B8F1FF3FC3D1C4F30745012DECD0CF
:1037B00033689B6924EA030C1FFA8CFCBCFA8CFC6E
:1037C0004FEA5C1CEBE70020BDE8F0812DE9F843EF
:1037D00005460E469046994653E01A6842F4007238
:1037E0001A602B686FF480625A6100232B632022D9
:1037F00085F83D2085F83E302A6C42F004022A64A8
:1038000085F83C3001204AE0FFF7F4F8A0EB09000E
:10381000404502D8B8F1000F33D1012F17D02B68E3
:103820009B6926EA03039BB2003B18BF012343B305
:1038300000232B63202285F83D2085F83E302A6C3A
:1038400042F020022A6485F83C30012027E02B68F2
:103850005B6926EA03039BB2003B18BF0123E6E73E
:103860002B689C6926EA0404A4B2003C18BF01241A
:10387000A4B12B685A6912F4806FAED1B8F1FF3F42
:10388000C2D1C6F30747012FEAD12B685C6926EA4B
:103890000404A4B2003C18BF0124E9E70020BDE8FD
:1038A000F8830000F0B583B004460D4616461F4667
:1038B000C36A082B0DD0012B0BD013F5803F08D025
:1038C000036B122B0AD10268136843F480731360F0
:1038D00004E02268136843F4807313600097334652
:1038E00000224FF001112046FFF71BFF80B923692A
:1038F000B3F5804F16D1236805F0FE051D613B46E8
:10390000324613492046FFF761FFF8B903B0F0BD16
:1039100023681B6813F4807F02D04FF40073236484
:103920000320F3E7EB11226803F0060343F0F003F2
:1039300013613B46324607492046FFF747FF18B957
:103940002368EDB21D61DAE70120DFE70120DDE742
:10395000020001000800010070B504460D4616463D
:1039600023685B6913F0800F21D12046FFF7C0FE6A
:10397000F8B9B5F1FF3FF3D0FFF73CF8801BA84240
:1039800001D8002DECD123685B6913F0800FE7D1DB
:1039900000232363202284F83D2084F83E30226CEB
:1039A00042F02002226484F83C30012000E0002034
:1039B00070BD0120FCE770B504460D46164623682D
:1039C0005B6913F0040F21D12046FFF791FEF8B98F
:1039D000B5F1FF3FF3D0FFF70DF8801BA84201D8E7
:1039E000002DECD123685B6913F0040FE7D10023AD
:1039F0002363202284F83D2084F83E30226C42F07C
:103A00002002226484F83C30012000E0002070BDD8
:103A10000120FCE7002800F0CC8070B5044690F847
:103A20003D30002B77D0242384F83D302268136882
:103A300023F0010313602268136843F4004313600A
:103A40002268136823F40043136000F07FFC62686F
:103A50005A4B9A4264D85A4B98428CBF0023012398
:103A6000002B40F0A8805749A1FB00318B0C256842
:103A70006A6822F03F0242EA91426A6021680A6A5B
:103A800022F03F0266684D4DAE424FD801331343DA
:103A90000B622168CA6922F44F4222F0FF02656876
:103AA000464B9D424CD8431E6D00B3FBF5F30133EA
:103AB00040F6FC70034278D0C3F30B031A43CA618B
:103AC00021680B6823F0C003E269206A02431343B4
:103AD0000B6021688B6823F4034323F0FF03226902
:103AE000E068024313438B602168CB6823F0FF0337
:103AF0006269A06902431343CB602268136843F0F4
:103B00000103136000202064202384F83D302063EB
:103B100084F83E0070BD80F83C30FDF7AFFC82E7D2
:103B2000294B98428CBF0023012399E74FF49675E7
:103B300005FB03F3254DA5FB03539B090133A6E7C2
:103B4000A668BEB9431E05EB450CB3FBFCF301337D
:103B5000C3F30B03B3FA83F35B0943BBC6B9431E3C
:103B600005EB4505B3FBF5F30133C3F30B0343F456
:103B70000043A3E7431E05EB850C0CEB8C0CB3FB59
:103B8000FCF30133C3F30B03B3FA83F35B09E4E7FC
:103B9000431E05EB850505EB8505B3FBF5F3013306
:103BA000C3F30B0343F4404388E7042386E7012370
:103BB00084E7012070470120ACE700BFA086010028
:103BC0007F841E0083DE1B43FF083D00D34D62103F
:103BD0002DE9F04385B004460F46904699460C9E69
:103BE000FEF708FF94F83D10202904D0022738463C
:103BF00005B0BDE8F08305460090192301224F4926
:103C00002046FFF78EFD002840F0928094F83C306B
:103C1000012B00F08F80012384F83C3023681A6860
:103C200012F0010F03D11A6842F001021A602268F3
:103C3000136823F400631360212384F83D301023BC
:103C400084F83E3000232364C4F82480A4F82A902A
:103C5000638D23853A4BE3622B4632463946204634
:103C6000FFF720FE0746002866D100230393236850
:103C70005A6903929B690393039B11E0236C042B05
:103C800001D00127B3E72268136843F4007313607F
:103C9000F7E72A4631462046FFF78DFE00282ED151
:103CA000238D002B36D02A4631462046FFF754FE9E
:103CB0000028E3D1626A236812781A61606A431CA3
:103CC0006362618D89B2013989B26185238D013BBF
:103CD0009BB223852268516911F0040FD9D0002BC3
:103CE000D7D043781361636A01336362638D9BB2FB
:103CF000013B9BB26385238D013B2385C9E7236C80
:103D0000042B01D0012772E72268136843F4007383
:103D10001360F7E72268136843F4007313602023ED
:103D200084F83D30002384F83E3084F83C305EE770
:103D300002275CE702275AE7012758E70200100034
:103D40000000FFFF82B0084B1B68084AA2FB032358
:103D50005B0A00FB03F3019300BF019B5A1E019213
:103D6000002BF9D102B070470C000020D34D621037
:103D7000002800F0F18170B582B00446036813F0AA
:103D8000010F2CD0994B5B6803F00C03042B1DD062
:103D9000964B5B6803F00C03082B12D06368B3F5F5
:103DA000803F41D0002B55D103F1804303F504330C
:103DB0001A6822F480321A601A6822F480221A608B
:103DC00037E08A4B5B6813F4803FE7D0874B1B6872
:103DD00013F4003F03D06368002B00F0BF81236819
:103DE00013F0020F75D0814B5B6813F00C0F5FD09E
:103DF0007E4B5B6803F00C03082B54D02369002B27
:103E000000F08A807A4B01221A60FEF7F3FD054626
:103E1000764B1B6813F0020F75D1FEF7EBFD401BCC
:103E20000228F5D903209EE1704A136843F48033D9
:103E30001360636843B3FEF7DDFD05466B4B1B68FB
:103E400013F4003FCBD1FEF7D5FD401B6428F5D914
:103E5000032088E1B3F5A02F09D0644B1A6822F43F
:103E600080321A601A6822F480221A60E1E703F1B6
:103E70008043A3F53C331A6842F480221A601A6822
:103E800042F480321A60D4E7FEF7B4FD0546574B82
:103E90001B6813F4003FA2D0FEF7ACFD401B642862
:103EA000F5D903205FE1514B5B6813F4803FA5D146
:103EB0004E4B1B6813F0020F03D02369012B40F017
:103EC0004F814A4A136823F0F803616943EAC1034A
:103ED0001360236813F0080F33D0A369002B5CD064
:103EE000434B0122C3F88024FEF784FD05463F4B77
:103EF0005B6A13F0020F21D1FEF77CFD401B022804
:103F0000F5D903202FE1394A136823F0F8036169DA
:103F100043EAC1031360DCE7354B00221A60FEF769
:103F200069FD0546314B1B6813F0020FD1D0FEF737
:103F300061FD401B0228F5D9032014E10120FFF7A1
:103F400001FF236813F0040F00F09680274BDB6914
:103F500013F0805F34D1254BDA6942F08052DA6188
:103F6000DB6903F080530193019B0125214B1B6802
:103F700013F4807F26D0E368012B3DD0002B53D172
:103F800003F1804303F504331A6A22F001021A6236
:103F90001A6A22F004021A6233E0154B0022C3F8B9
:103FA0008024FEF727FD0546104B5B6A13F0020FD5
:103FB000C7D0FEF71FFD401B0228F5D90320D2E031
:103FC0000025D3E70B4A136843F480731360FEF7B0
:103FD00011FD0646074B1B6813F4807FCBD1FEF71B
:103FE00009FD801B6428F5D90320BCE000100240C5
:103FF00000004242007000405F4A136A43F0010330
:104000001362E36833B3FEF7F5FC06465A4B1B6AAE
:1040100013F0020F2FD1FEF7EDFC801B41F2883325
:104020009842F3D903209EE0052B09D0524B1A6A1F
:1040300022F001021A621A6A22F004021A62E0E710
:104040004D4B1A6A42F004021A621A6A42F00102E7
:104050001A62D6E7FEF7CEFC0646474B1B6A13F002
:10406000020F08D0FEF7C6FC801B41F2883398424D
:10407000F3D9032077E0E5B9E369002B72D03E4A1B
:10408000526802F00C02082A56D0022B17D03B4B84
:1040900000221A66FEF7AEFC0446374B1B6813F08D
:1040A000007F47D0FEF7A6FC001B0228F5D90320AD
:1040B00059E0314AD36923F08053D361DCE72F4BB9
:1040C00000221A66FEF796FC05462B4B1B6813F080
:1040D000007F06D0FEF78EFC401B0228F5D9032096
:1040E00041E0236AB3F5803F1AD023494B6823F49B
:1040F0007413226A606A024313434B601F4B012210
:104100001A66FEF777FC04461B4B1B6813F0007F12
:104110000ED1FEF76FFC001B0228F5D9032022E028
:10412000154A536823F40033A1680B435360DCE75E
:10413000002018E0002016E0012B16D00E4B5B6823
:1041400003F48031226A914211D103F47013626A40
:1041500093420ED1002006E001207047012002E0CA
:10416000012000E0002002B070BD0120FBE701202B
:10417000F9E70120F7E700BF0010024000004242CB
:104180000F4B5B6803F00C02082A01D00D48704702
:10419000C3F383420C49885C13F4803F0BD0084B77
:1041A0005B68C3F34043094AD35C064A02FB00F054
:1041B000B0FBF3F07047064B03FB00F0704700BF05
:1041C0000010024000127A0044D0000840D00008DD
:1041D00000093D00002800F0A08070B50D4604469F
:1041E000524B1B6803F007038B420BD24F4A1368F4
:1041F00023F007030B431360136803F007038B429C
:1042000040F08D80236813F0020F17D013F0040FD5
:1042100004D0474A536843F4E0635360236813F0C3
:10422000080F04D0424A536843F460535360404A35
:10423000536823F0F003A1680B435360236813F025
:10424000010F31D06368012B20D0022B25D0384AD2
:10425000126812F0020F64D035494A6822F0030256
:1042600013434B60FEF7C6FB0646314B5B6803F019
:104270000C036268B3EB820F16D0FEF7BBFB801B0A
:1042800041F288339842F0D9032045E0284A126869
:1042900012F4003FE0D101203EE0254A126812F0FE
:1042A000007FD9D1012037E0204B1B6803F00703C2
:1042B000AB420AD91D4A136823F007032B4313604E
:1042C000136803F00703AB422DD1236813F0040FEA
:1042D00006D0174A536823F4E063E1680B43536048
:1042E000236813F0080F07D0114A536823F4605372
:1042F000216943EAC1035360FFF742FF0C4B5B683F
:10430000C3F303130B4AD35CD8400B4B18600B4B21
:104310001868FEF72BFB002070BD012070470120BC
:10432000FAE70120F8E70120F6E700BF002002408D
:104330000010024030D000080C00002014000020C3
:10434000014B1868704700BF0C00002008B5FFF74C
:10435000F7FF044B5B68C3F30223034AD35CD840E6
:1043600008BD00BF0010024028D0000808B5FFF7C4
:10437000E7FF044B5B68C3F3C223034AD35CD84016
:1043800008BD00BF0010024028D0000870B582B000
:104390000446036813F0010F36D03F4BDB6913F07E
:1043A000805F4AD13C4BDA6942F08052DA61DB69C6
:1043B00003F080530193019B0125384B1B6813F4D4
:1043C000807F3CD0344B1B6A13F4407313D0626877
:1043D00002F440729A420ED02F4A136A23F44070BE
:1043E0002F490126C1F840640026C1F840641062DC
:1043F00013F0010F37D1284A136A23F44073616820
:104400000B431362002D3FD1236813F0020F06D037
:10441000214A536823F44043A1680B435360236847
:1044200013F0100F35D01C4A536823F48003E16861
:104430000B435360002002B070BD0025BDE7174A52
:10444000136843F480731360FEF7D4FA0646134BE7
:104450001B6813F4807FB5D1FEF7CCFA801B64286B
:10446000F5D90320E7E7FEF7C5FA06460A4B1B6AB3
:1044700013F0020FBFD1FEF7BDFA801B41F2883363
:104480009842F3D90320D6E7D36923F08053D36150
:10449000BAE70020CFE700BF0010024000700040E4
:1044A0000000424208B502284ED0102803D001284F
:1044B00028D0002052E02B4B5A68186810F080700A
:1044C0004CD0C2F383432849C85C12F4803F15D016
:1044D000244B5B68C3F34043244AD25C244BB3FBB8
:1044E000F2F303FB00F01F4B5B6813F4800F35D130
:1044F0004000204BA3FB003040082FE01E4B03FB85
:1045000000F0F0E7174B1B6A40F202321A40B2F596
:10451000817F24D003F44073B3F5007F04D0B3F55A
:10452000407F09D0002019E00E4A526A12F0020FB3
:10453000F5D049F6404011E00A4B186810F40030FD
:104540000CD04FF2244009E0FFF710FF054B5B68E9
:10455000C3F3813301335B00B0FBF3F008BD4FF4CC
:104560000040FBE70010024058D0000854D000087B
:1045700000127A00ABAAAAAA00093D0030B4026A70
:10458000036A23F0010303624568836923F0730320
:104590000C681C4322F002028B6813430B4A9042C2
:1045A00006D0456084614A684263036230BC70474C
:1045B00023F00803CA681A4322F0040325F4407567
:1045C0004A692A438D691543EBE700BF002C01407F
:1045D00030B4036A026A22F4807202624468C269DB
:1045E00022F073020D68154323F400738A6843EACE
:1045F00002230D4A904206D04460C5614A68C263F6
:10460000036230BC704723F40063CA6843EA0223A4
:1046100023F4806324F440544A6944EA02148A690A
:1046200044EA0214E8E700BF002C014030B4036AFA
:10463000026A22F4805202624468C26922F4E642AD
:104640000D6842EA052223F400538D6843EA0533DE
:10465000074DA84206D04460C2614A680264036202
:1046600030BC704724F480444D6944EA8514F2E775
:10467000002C014010B4036A046A24F001040462AF
:10468000846924F0F00C4CEA021223F00A030B4375
:104690008261036210BC704710B4036A046A24F09C
:1046A00010040462846924F4704C4CEA023223F052
:1046B000A00343EA01138261036210BC7047836860
:1046C00023F070030B4343F007038360704700003F
:1046D00090F83D30012B27D1022380F83D3002684D
:1046E000D36843F00103D3600368114A934210D0AA
:1046F000B3F1804F0DD0A2F59432934209D002F568
:104700008062934205D01A6842F001021A600020CC
:1047100070479A6802F00702062A07D01A6842F02A
:1047200001021A6000207047012070470020704786
:10473000002C01407047704770477047704770B554
:1047400004460368DE681D6915F0020F10D016F0EC
:10475000020F0DD06FF002021A6101230377036884
:104760009B6913F0030F5ED0FFF7E6FF002323776A
:1047700015F0040F12D016F0040F0FD023686FF05D
:1047800004021A610223237723689B6913F4407F94
:104790004FD02046FFF7D0FF0023237715F0080FF6
:1047A00012D016F0080F0FD023686FF008021A61BC
:1047B000042323772368DB6913F0030F40D02046DE
:1047C000FFF7BAFF0023237715F0100F12D016F071
:1047D000100F0FD023686FF010021A61082323779F
:1047E0002368DB6913F4407F31D02046FFF7A4FF34
:1047F0000023237715F0010F02D016F0010F2DD101
:1048000015F0800F02D016F0800F2FD115F0400F59
:1048100002D016F0400F31D115F0200F02D016F063
:10482000200F33D170BDFFF786FF2046FFF785FFCD
:104830009CE72046FFF77FFF2046FFF77EFFABE7B0
:104840002046FFF778FF2046FFF777FFBAE72046BC
:10485000FFF771FF2046FFF770FFC9E723686FF08D
:1048600001021A612046FDF7B1F9C9E723686FF02C
:1048700080021A61204600F044FBC7E723686FF00E
:1048800040021A612046FFF759FFC5E723686FF021
:1048900020021A61204600F033FBC3E703681F4A79
:1048A00090420AD0B0F1804F07D0A2F594329042E6
:1048B00003D002F58062904203D123F070034A686E
:1048C0001343164A90420AD0B0F1804F07D0A2F5A8
:1048D0009432904203D002F58062904203D123F4D7
:1048E0004073CA68134323F080034A69134303608B
:1048F0008B68C3620B688362084B98420AD001231D
:104900004361036913F0010F03D0036923F001032E
:10491000036170470B690363F1E700BF002C01409E
:1049200040B310B5044690F83D30F3B1022384F84B
:104930003D30214651F8040BFFF7B0FF012384F806
:10494000463084F83E3084F83F3084F8403084F8B4
:10495000413084F8423084F8433084F8443084F89D
:10496000453084F83D30002010BD80F83C30FDF724
:104970006BFEDBE70120704740B310B5044690F8AA
:104980003D30F3B1022384F83D30214651F8040B49
:10499000FFF784FF012384F8463084F83E3084F822
:1049A0003F3084F8403084F8413084F8423084F855
:1049B000433084F8443084F8453084F83D3000209A
:1049C00010BD80F83C30FFF7B5FEDBE701207047F3
:1049D000002856D070B50D46044690F83D30002BA7
:1049E0004AD0022384F83D302268936823F4804340
:1049F00023F007039360214651F8040BFFF74EFFA5
:104A000021688B688A690E6A2868184322F440720C
:104A100022F00302AB68D5F818C043EA0C23134315
:104A200023F47C4323F0FC03EA68D5F81CC042EA77
:104A30000C221A432B6A1B03D5F810C043EA0C134F
:104A4000134326F022066A686D6942EA0512324372
:104A5000886021688B6123681A62012384F84630DC
:104A600084F83E3084F83F3084F8423084F8433094
:104A700084F83D30002070BD80F83C30FDF714FE16
:104A8000AFE701207047000030B4036A026A22F0E9
:104A9000100202624468826922F4E6420D6842EA2A
:104AA000052223F020038D6843EA05130C4DA8422C
:104AB00006D0446082614A688263036230BC7047FA
:104AC00023F08003CD6843EA051323F0400324F468
:104AD00040644D6944EA85048D6944EA8504E8E749
:104AE000002C014038B590F83C30012B66D00446CC
:104AF0000D46012380F83C300C2A5AD8DFE802F03A
:104B0000075959591B595959305959594400006886
:104B1000FFF734FD2268936943F00803936122682C
:104B2000936923F0040393612268936929690B4315
:104B3000936100203EE00068FFF7A6FF22689369BA
:104B400043F4006393612268936923F48063936163
:104B500022689369296943EA01239361002029E0CF
:104B60000068FFF735FD2268D36943F00803D3617D
:104B70002268D36923F00403D3612268D3692969C9
:104B80000B43D361002015E00068FFF74FFD22685A
:104B9000D36943F40063D3612268D36923F480634B
:104BA000D3612268D369296943EA0123D3610020D4
:104BB00000E00120002384F83C3038BD0220FCE7EF
:104BC00010B4846824F47F4C42EA03220A4342EA88
:104BD0000C02826010BC704790F83C30012B78D0FA
:104BE00010B50446012380F83C30022380F83D30A4
:104BF0000268936823F47F4323F0770393600B6884
:104C0000602B4CD023D8402B54D011D8202B03D06C
:104C10000AD80BB1102B05D119462068FFF74FFDBC
:104C2000002028E0012026E0302BF5D0012022E0F2
:104C3000502B0AD1CA6849680068FFF71BFD502154
:104C40002068FFF73CFD002015E0012013E0B3F5DC
:104C5000805F3AD0B3F5005F14D0702B37D1CB68AA
:104C60004A6889680068FFF7ABFF2268936843F0E1
:104C7000770393600020012384F83D30002384F8FB
:104C80003C3010BDCB684A6889680068FFF798FF20
:104C90002268936843F4804393600020EBE7CA687E
:104CA00049680068FFF7F8FC60212068FFF707FDFE
:104CB0000020E0E7CA6849680068FFF7DBFC402194
:104CC0002068FFF7FCFC0020D5E70020D3E7012097
:104CD000D1E70220704701F01F014FF0010C0CFAE0
:104CE00001FC036A23EA0C030362036A8A4013434C
:104CF0000362704710B50446084649BB94F83E303D
:104D0000013B18BF0123002B58D1002836D10223C4
:104D100084F83E30012201462068FFF7DCFF23685B
:104D2000284A93423AD02368264A93423BD0B3F1B3
:104D3000804F38D0A2F59432934234D002F580628D
:104D4000934230D01A6842F001021A60002036E027
:104D5000042907D008290BD094F84130013B18BF33
:104D60000123D0E794F83F30013B18BF0123CAE785
:104D700094F84030013B18BF0123C4E7042805D054
:104D8000082807D0022384F84130C3E7022384F8BF
:104D90003F30BFE7022384F84030BBE75A6C42F44F
:104DA00000425A64BFE79A6802F00702062A07D059
:104DB0001A6842F001021A60002000E0012010BDD4
:104DC0000020FCE7002C014038B5044690F83E0076
:104DD000C0B294F83F3094F84220D2B294F843C065
:104DE0000D46B1B9012849D1012A48D1022384F8DE
:104DF0003E3084F842307DB3042D39D001220021A9
:104E00002068FFF768FF012204212068FFF763FF95
:104E100027E0DBB25FFA8CFC042912D0012833D1E1
:104E2000012B2CD1012A31D1BCF1010F30D1022349
:104E300084F83E3084F83F3084F8423084F84330C0
:104E4000D9E7012B1CD1BCF1010F1BD1022384F83F
:104E50003F3084F84330CEE7012200212068FFF77D
:104E60003AFF2268136843F001031360002006E054
:104E7000012204212068FFF72EFFF2E7012038BD50
:104E80000120FCE71846FAE70120F8E71846F6E7A4
:104E90001046F4E790F83C20012A2CD010B40346C9
:104EA000012280F83C20022280F83D2002685068F0
:104EB000946820F0700C086840EA0C0050601A6892
:104EC0000E4882420AD0B2F1804F07D0A0F594304C
:104ED000824203D000F58060824204D124F0800435
:104EE000496821439160012283F83D20002083F826
:104EF0003C0010BC70470220704700BF002C0140EE
:104F000070477047026802F10C0353E8003F23F03A
:104F1000C0030C3242E800310029F3D1202380F88D
:104F200041307047026802F10C0353E8003F23F45C
:104F300090730C3242E800310029F3D1026802F18B
:104F4000140353E8003F23F00103143242E8003118
:104F50000029F3D1036B012B05D0202380F84230C8
:104F6000002303637047026802F10C0353E8003F1B
:104F700023F010030C3242E800310029F3D1ECE7B2
:104F800090F84130212B01D0022070478368B3F59F
:104F9000805F17D0036A5A1C02621A7803685A604D
:104FA000C38C9BB2013B9BB2C3844BB90268D368EC
:104FB00023F08003D3600268D36843F04003D360DA
:104FC000002070470369002BE4D1036A1B88026844
:104FD000C3F308035360036A02330362E0E700008F
:104FE00010B504460268136923F44053C1680B43AB
:104FF000136183680269134342691A430168CB68ED
:1050000023F4B05323F00C031343CB6002685369BD
:1050100023F4407381690B4353610268134B9A4236
:1050200020D0FFF793F9024602EB820202EB8202E4
:1050300063689B00B2FBF3F20D48A0FB0231490903
:10504000642303FB11231B013233A0FB03035B0921
:1050500003F0F00202EB011203F00F032168134486
:105060008B6010BDFFF782F90246DDE70038014092
:105070001F85EB5160B310B5044690F8413013B36F
:10508000242384F841302268D36823F40053D3608A
:105090002046FFF7A5FF2268136923F490431361AC
:1050A0002268536923F02A0353612268D36843F4CA
:1050B0000053D36000206064202384F8413084F8DA
:1050C0004230606310BD80F84030FDF7B3FBD7E796
:1050D00001207047704708B50168CA6822F0400295
:1050E000CA60202280F84120FFF7F4FF002008BDAD
:1050F00070477047704710B5446A23685B6994F83D
:105100004120212A0FD023685B6903F0400394F803
:105110004220222A11D0636C43F0100363642046BE
:10512000FFF7E8FF10BD03F08003002BEBD0002356
:10513000E3842046FFF7E6FEE5E7002BEBD00023F3
:10514000E3852046FFF7EEFEE5E708B5406A002359
:10515000C385C384FFF7CEFF08BD90F84230222BF1
:1051600069D18368B3F5805F4FD0826AB3F5805F01
:1051700004D0002B56D10369002B53D103685B6820
:105180001370836A01338362C38D9BB2013B9BB270
:10519000C385002B51D100B583B00268D36823F0DA
:1051A0002003D3600268D36823F48073D36002685D
:1051B000536923F001035361202380F84230002318
:1051C0004363036B012B33D100230363026802F1B5
:1051D0000C0353E8003F23F010030C3242E8003187
:1051E0000029F3D103681A6812F0100F06D00022CC
:1051F00001921A6801925B680193019B818DFCF713
:105200009DF9002003B05DF804FB0269002AACD1CF
:10521000826A03685B68C3F308031380836A0233FE
:105220008362B1E703685B6803F07F031370A8E74C
:10523000FFF75EFFE5E7022070470020704700009F
:1052400010B582B0044602681368D068516913F043
:105250000F0F09D113F0200F0CD010F0200F09D040
:105260002046FFF77AFF16E011F0010115D110F486
:10527000907F12D1216B012979D013F0800F03D0D8
:1052800010F0800F40F0138113F0400F03D010F0A6
:10529000400F40F0108102B010BD13F0010F06D096
:1052A00010F4807F03D0626C42F00102626413F05C
:1052B000040F04D019B1626C42F00202626413F070
:1052C000020F04D019B1626C42F00402626413F060
:1052D000080F07D010F0200F00D119B1626C42F016
:1052E00008026264626C002AD5D013F0200F02D04D
:1052F00010F0200F29D123685B6903F04003626C32
:1053000012F0080F00D163B32046FFF70BFE2368AD
:105310005B6913F0400F20D0226802F1140353E8B8
:10532000003F23F04003143242E800310029F3D15A
:10533000E36B73B1624A5A63E06BFDF7CDFF00285F
:10534000A9D0E06B436B9847A5E72046FFF705FF20
:10535000D1E72046FFF7CEFE9DE72046FFF7CAFEC5
:1053600099E72046FFF7C6FE0023636493E713F036
:10537000100F82D010F0100F3FF47FAF0023019385
:105380001368019353680193019B536913F0400F15
:1053900051D0E26B13685B689BB2002B3FF47BAF8C
:1053A000A18D99427FF677AFE3859369202B37D0A3
:1053B000226802F10C0353E8003F23F480730C329F
:1053C00042E800310029F3D1226802F1140353E8C6
:1053D000003F23F00103143242E800310029F3D1E9
:1053E000226802F1140353E8003F23F04003143213
:1053F00042E800310029F3D1202384F84230002311
:105400002363226802F10C0353E8003F23F01003EA
:105410000C3242E800310029F3D1E06BFDF73AFF8E
:1054200002236363A18DE38D9BB2C91A89B2204622
:10543000FCF784F82FE7A18DE38D9BB2C91A89B2DE
:10544000E38D9BB2002B3FF426AF00293FF423AF3E
:10545000226802F10C0353E8003F23F490730C32EE
:1054600042E800300028F3D1226802F1140353E827
:10547000003F23F00103143242E800300028F3D14A
:10548000202384F8423000232363226802F10C03B6
:1054900053E8003F23F010030C3242E800300028AC
:1054A000F3D1022363632046FCF748F8F3E6204675
:1054B000FFF766FDEFE62046FFF70DFEEBE600BFC7
:1054C0004B51000808B5406A01234363036B012B6D
:1054D00002D0FFF70EFE08BD818D4908FCF72EF8BB
:1054E000F9E708B50346406A1B681B6813F0200FF4
:1054F0002BD10023C385026802F10C0353E8003F5F
:1055000023F480730C3242E800310029F3D10268A1
:1055100002F1140353E8003F23F00103143242E880
:1055200000310029F3D1026802F1140353E8003F6F
:1055300023F04003143242E800310029F3D1202344
:1055400080F84230036B012B07D000234363036BC9
:10555000012B0FD0FFF7CCFD08BD026802F10C0350
:1055600053E8003F23F010030C3242E800310029D9
:10557000F3D1EAE7818DFBF7E1FFEDE730B583B0CA
:10558000044613468162828500254564222280F804
:105590004220C26B1F489062E26B1F48D062E26BF0
:1055A0001E481063E26B556320680A46011DE06BDC
:1055B000FDF736FE019523681A6801925B68019336
:1055C000019B23695BB1226802F10C0353E8003FA1
:1055D00043F480730C3242E800310029F3D1226891
:1055E00002F1140353E8003F43F00103143242E890
:1055F00000310029F3D1226802F1140353E8003F7F
:1056000043F04003143242E800310029F3D1002076
:1056100003B030BDE3540008C5540008F75000083B
:1056200090F84230202B27D110B582B0044629B320
:1056300012B9012002B010BD0123036300234363AC
:10564000FFF79CFF236B012B01D00120F2E7002321
:10565000019323681A6801925B680193019B226899
:1056600002F10C0353E8003F43F010030C3242E810
:1056700000310029F3D1DDE7022070470120D9E78E
:10568000024A0349034800F0C9B800BF18000020CF
:105690003D860008280000200C4B416810B5994257
:1056A000044601D002F0CAFFA168094B994202D01A
:1056B000204602F0C3FFE168064B994204D0204621
:1056C000BDE8104002F0BABF10BD00BF740F00204B
:1056D000DC0F0020441000202DE9F84300250423AE
:1056E000304C314A3149DFF8C890DFF8C880324F7A
:1056F000324E116004F15C0029460822C4E90335EA
:10570000C4E90055C4E90555A560656600F040F997
:1057100004F15800C4E90749C4E90987E66200F0CA
:1057200007FA274B2946082204F1C4006367C4E93D
:105730001A55C4E91E552567C4F8CC50C4F88050EA
:1057400000F026F904F1680304F1C000C4F88430C5
:10575000C4E92298C4E9247600F0EAF9194B2946F5
:1057600004F596700822C4F8DC30C4E93455C4E965
:105770003855C4F8D850C4F83451C4F8E85000F093
:1057800007F904F1D003C4E93D87C4F8F09004F5AB
:105790009470C4F8FC60C4F8EC30BDE8F84300F045
:1057A000C7B900BF740F0020AC100020815600085C
:1057B000A5580008C9580008095900082D590008C3
:1057C000090001001200020010B504460A4800F06A
:1057D000B3F9636B23B9094B094A1B68626323B1B0
:1057E000BDE81040044800F0A9B9FFF775FFBDE817
:1057F0001040014800F0A2B9BC100020AC100020FD
:1058000099560008014800F097B900BFBC1000206D
:10581000014800F093B900BFBC1000202DE9F84307
:105820004FF0000980460F461646D6E90154013D67
:1058300010D4A389012B08D9B4F90E30013304D058
:1058400021464046B84749EA0009013D6B1C04F176
:105850006804EED13668002EE7D14846BDE8F883EB
:105860000EB470B504466FF0004600259DB00B4A9B
:1058700021AB0B49106853F8042B059102A9CDE91F
:105880000134049607961B95069400F083FD029B55
:105890001D701DB0BDE8704003B0704724000020AB
:1058A0000802FFFF10B50C46B1F90E1000F0E6F843
:1058B000002803DB236D0344236510BDA38923F473
:1058C0008053A38110BD00BF2DE9F0410C46B1F912
:1058D0000C101F46CB05054616460BD421F480510B
:1058E000A1813B4632462846B4F90E10BDE8F0418E
:1058F00000F0DAB8B4F90E100223002200F0A8F884
:10590000B4F90C10EAE700BF10B50C46B1F90E105F
:1059100000F09EF8B4F90C30421C0EBF23F4805303
:1059200043F480532065A38110BD00BFB1F90E1070
:1059300000F07CB8032A30B412D941EA0004A4076D
:1059400084460B4621D11946604653F8044B5CF857
:10595000045BA54219D1043A032AF4D860461946DB
:10596000541E7AB1431E0139021901E09A4209D04E
:1059700013F8010F11F801CF6045F7D0A0EB0C0030
:1059800030BC7047002030BC7047541EEAE700BFAF
:10599000830730B546D08446841805E0634603F893
:1059A000011B9D0703D09C46A445F7D130BD013AA9
:1059B0000244A2EB0C02032A29D9CCB204EB042442
:1059C0000F2A04EB04442FD9A2F1100C2CF00F0C79
:1059D00003F11005AC44C3E90044C3E902441033A9
:1059E0006345F8D112F00C0F02F00F0E18D01A46D2
:1059F0002EF0030C9C44AEF1040542F8044B6245C2
:105A0000FBD125F0030404330EF003022344002AE3
:105A1000CCD0C9B21A4403F8011B9342FBD130BD6C
:105A20007246F4E70346C6E79646E0E7002238B53B
:105A3000064D044608462A60FCF76CFD431C00D066
:105A400038BD2B68002BFBD0236038BDB010002080
:105A500038B50C46114600228446074D20462A6080
:105A60001A466446FCF760FD431C00D038BD2B6825
:105A7000002BFBD0236038BDB010002038B50C4699
:105A8000114600228446074D20462A601A46644685
:105A9000FCF722FD431C00D038BD2B68002BFBD047
:105AA000236038BDB010002038B50C4611460022E6
:105AB0008446074D20462A601A466446FCF71CFDC2
:105AC000431C00D038BD2B68002BFBD0236038BDB1
:105AD000B0100020014B1868704700BF2400002060
